{
  "address": "0x271850b6815A40e229243b624b41EeC7094E93B9",
  "abi": [
    {
      "anonymous": false,
      "inputs": [
        {
          "indexed": false,
          "internalType": "uint256",
          "name": "projectId",
          "type": "uint256"
        },
        {
          "indexed": false,
          "internalType": "address",
          "name": "contributor",
          "type": "address"
        },
        {
          "indexed": false,
          "internalType": "uint256",
          "name": "amount",
          "type": "uint256"
        }
      ],
      "name": "Contributed",
      "type": "event"
    },
    {
      "anonymous": false,
      "inputs": [
        {
          "indexed": false,
          "internalType": "uint256",
          "name": "projectId",
          "type": "uint256"
        },
        {
          "indexed": false,
          "internalType": "address",
          "name": "creator",
          "type": "address"
        },
        {
          "indexed": false,
          "internalType": "uint256",
          "name": "amount",
          "type": "uint256"
        }
      ],
      "name": "FundsWithdrawn",
      "type": "event"
    },
    {
      "anonymous": false,
      "inputs": [
        {
          "indexed": true,
          "internalType": "address",
          "name": "previousOwner",
          "type": "address"
        },
        {
          "indexed": true,
          "internalType": "address",
          "name": "newOwner",
          "type": "address"
        }
      ],
      "name": "OwnershipTransferred",
      "type": "event"
    },
    {
      "anonymous": false,
      "inputs": [
        {
          "indexed": false,
          "internalType": "uint256",
          "name": "projectId",
          "type": "uint256"
        },
        {
          "indexed": false,
          "internalType": "address",
          "name": "creator",
          "type": "address"
        },
        {
          "indexed": false,
          "internalType": "string",
          "name": "causa",
          "type": "string"
        },
        {
          "indexed": false,
          "internalType": "uint256",
          "name": "goal",
          "type": "uint256"
        },
        {
          "indexed": false,
          "internalType": "uint256",
          "name": "deadline",
          "type": "uint256"
        }
      ],
      "name": "ProjectCreated",
      "type": "event"
    },
    {
      "anonymous": false,
      "inputs": [
        {
          "indexed": false,
          "internalType": "uint256",
          "name": "projectId",
          "type": "uint256"
        },
        {
          "indexed": false,
          "internalType": "address",
          "name": "contributor",
          "type": "address"
        },
        {
          "indexed": false,
          "internalType": "uint256",
          "name": "amount",
          "type": "uint256"
        }
      ],
      "name": "Refunded",
      "type": "event"
    },
    {
      "inputs": [],
      "name": "contractFeePercentage",
      "outputs": [
        {
          "internalType": "uint256",
          "name": "",
          "type": "uint256"
        }
      ],
      "stateMutability": "view",
      "type": "function"
    },
    {
      "inputs": [
        {
          "internalType": "uint256",
          "name": "_projectId",
          "type": "uint256"
        }
      ],
      "name": "contribute",
      "outputs": [],
      "stateMutability": "payable",
      "type": "function"
    },
    {
      "inputs": [
        {
          "internalType": "uint256",
          "name": "",
          "type": "uint256"
        },
        {
          "internalType": "address",
          "name": "",
          "type": "address"
        }
      ],
      "name": "contributions",
      "outputs": [
        {
          "internalType": "uint256",
          "name": "",
          "type": "uint256"
        }
      ],
      "stateMutability": "view",
      "type": "function"
    },
    {
      "inputs": [
        {
          "internalType": "string",
          "name": "_causa",
          "type": "string"
        },
        {
          "internalType": "uint256",
          "name": "_goal",
          "type": "uint256"
        },
        {
          "internalType": "uint256",
          "name": "_duration",
          "type": "uint256"
        }
      ],
      "name": "createProject",
      "outputs": [],
      "stateMutability": "nonpayable",
      "type": "function"
    },
    {
      "inputs": [
        {
          "internalType": "uint256",
          "name": "_projectId",
          "type": "uint256"
        }
      ],
      "name": "getTimeRemaining",
      "outputs": [
        {
          "internalType": "uint256",
          "name": "daysRemaining",
          "type": "uint256"
        },
        {
          "internalType": "uint256",
          "name": "hoursRemaining",
          "type": "uint256"
        },
        {
          "internalType": "uint256",
          "name": "minutesRemaining",
          "type": "uint256"
        },
        {
          "internalType": "uint256",
          "name": "secondsRemaining",
          "type": "uint256"
        }
      ],
      "stateMutability": "view",
      "type": "function"
    },
    {
      "inputs": [],
      "name": "maxGoal",
      "outputs": [
        {
          "internalType": "uint256",
          "name": "",
          "type": "uint256"
        }
      ],
      "stateMutability": "view",
      "type": "function"
    },
    {
      "inputs": [],
      "name": "maxTime",
      "outputs": [
        {
          "internalType": "uint256",
          "name": "",
          "type": "uint256"
        }
      ],
      "stateMutability": "view",
      "type": "function"
    },
    {
      "inputs": [],
      "name": "owner",
      "outputs": [
        {
          "internalType": "address",
          "name": "",
          "type": "address"
        }
      ],
      "stateMutability": "view",
      "type": "function"
    },
    {
      "inputs": [],
      "name": "projectCount",
      "outputs": [
        {
          "internalType": "uint256",
          "name": "",
          "type": "uint256"
        }
      ],
      "stateMutability": "view",
      "type": "function"
    },
    {
      "inputs": [
        {
          "internalType": "uint256",
          "name": "",
          "type": "uint256"
        }
      ],
      "name": "projects",
      "outputs": [
        {
          "internalType": "address",
          "name": "creator",
          "type": "address"
        },
        {
          "internalType": "string",
          "name": "causa",
          "type": "string"
        },
        {
          "internalType": "uint256",
          "name": "goal",
          "type": "uint256"
        },
        {
          "internalType": "uint256",
          "name": "deadline",
          "type": "uint256"
        },
        {
          "internalType": "uint256",
          "name": "amountRaised",
          "type": "uint256"
        },
        {
          "internalType": "bool",
          "name": "isActive",
          "type": "bool"
        }
      ],
      "stateMutability": "view",
      "type": "function"
    },
    {
      "inputs": [],
      "name": "renounceOwnership",
      "outputs": [],
      "stateMutability": "nonpayable",
      "type": "function"
    },
    {
      "inputs": [
        {
          "internalType": "uint256",
          "name": "_newMaxGoal",
          "type": "uint256"
        }
      ],
      "name": "setMaxGoal",
      "outputs": [],
      "stateMutability": "nonpayable",
      "type": "function"
    },
    {
      "inputs": [
        {
          "internalType": "uint256",
          "name": "_newMaxTime",
          "type": "uint256"
        }
      ],
      "name": "setMaxTime",
      "outputs": [],
      "stateMutability": "nonpayable",
      "type": "function"
    },
    {
      "inputs": [
        {
          "internalType": "address",
          "name": "newOwner",
          "type": "address"
        }
      ],
      "name": "transferOwnership",
      "outputs": [],
      "stateMutability": "nonpayable",
      "type": "function"
    },
    {
      "inputs": [
        {
          "internalType": "uint256",
          "name": "_projectId",
          "type": "uint256"
        }
      ],
      "name": "withdrawFunds",
      "outputs": [],
      "stateMutability": "nonpayable",
      "type": "function"
    }
  ],
  "transactionHash": "0x6c43e51e5ca8ec82e68e17bdb156365426fcdd3619e69ccae6b9f852fd7947bf",
  "args": [],
  "numDeployments": 1,
  "solcInputHash": "e181a294d8039c363414620fb07440d9",
  "bytecode": "0x608060405260006003556005600455683635c9adc5dea0000060055561016d60065534801561002d57600080fd5b506100373361003c565b61008c565b600080546001600160a01b038381166001600160a01b0319831681178455604051919092169283917f8be0079c531659141344cd1fd0a4f28419497f9722a3daafe3b4186f6b6457e09190a35050565b6110d48061009b6000396000f3fe6080604052600436106100e85760003560e01c80638da5cb5b1161008a578063dbd8987c11610059578063dbd8987c1461028c578063f2fde38b146102a2578063f3a6ac5f146102c2578063f71441a5146102e257600080fd5b80638da5cb5b1461021157806398b777e714610239578063c1cbbca714610259578063c435ae0c1461026c57600080fd5b806336fbad26116100c657806336fbad261461016e5780633d891f5914610184578063715018a6146101bc5780638cd42991146101d157600080fd5b8063107046bd146100ed578063155dd5ee1461012857806322e67e711461014a575b600080fd5b3480156100f957600080fd5b5061010d610108366004610c79565b6102f8565b60405161011f96959493929190610cd8565b60405180910390f35b34801561013457600080fd5b50610148610143366004610c79565b6103c4565b005b34801561015657600080fd5b5061016060065481565b60405190815260200161011f565b34801561017a57600080fd5b5061016060035481565b34801561019057600080fd5b5061016061019f366004610d3f565b600260209081526000928352604080842090915290825290205481565b3480156101c857600080fd5b506101486105ce565b3480156101dd57600080fd5b506101f16101ec366004610c79565b6105e2565b60408051948552602085019390935291830152606082015260800161011f565b34801561021d57600080fd5b506000546040516001600160a01b03909116815260200161011f565b34801561024557600080fd5b50610148610254366004610c79565b6106d0565b610148610267366004610c79565b61072d565b34801561027857600080fd5b50610148610287366004610c79565b6108d7565b34801561029857600080fd5b5061016060045481565b3480156102ae57600080fd5b506101486102bd366004610d6b565b610934565b3480156102ce57600080fd5b506101486102dd366004610da3565b6109ad565b3480156102ee57600080fd5b5061016060055481565b6001602081905260009182526040909120805491810180546001600160a01b039093169261032590610e67565b80601f016020809104026020016040519081016040528092919081815260200182805461035190610e67565b801561039e5780601f106103735761010080835404028352916020019161039e565b820191906000526020600020905b81548152906001019060200180831161038157829003601f168201915b505050506002830154600384015460048501546005909501549394919390925060ff1686565b6000818152600160205260409020546001600160a01b0316331461043f5760405162461bcd60e51b815260206004820152602760248201527f4f6e6c792070726f6a6563742063726561746f722063616e2077697468647261604482015266772066756e647360c81b60648201526084015b60405180910390fd5b6000818152600160205260409020600301544210156104a05760405162461bcd60e51b815260206004820152601f60248201527f50726f6a65637420646561646c696e6520686173206e6f7420706173736564006044820152606401610436565b60008181526001602052604081206004810154600290910154811061053a5760006064600454836104d19190610eb7565b6104db9190610eea565b90506104e78183610efe565b92506104fb6000546001600160a01b031690565b6001600160a01b03166108fc829081150290604051600060405180830381858888f19350505050158015610533573d6000803e3d6000fd5b505061053e565b8091505b60008381526001602052604080822060048101839055600501805460ff1916905551339184156108fc02918591818181858888f19350505050158015610588573d6000803e3d6000fd5b50604080518481523360208201529081018390527ff440aec6b52895984d061d622e6edeba6210f7c3e059be920663140c084560d79060600160405180910390a1505050565b6105d6610bcf565b6105e06000610c29565b565b600081815260016020526040812060058101548291829182919060ff166106435760405162461bcd60e51b815260206004820152601560248201527450726f6a656374206973206e6f742061637469766560581b6044820152606401610436565b600042826003015411610657576000610667565b4282600301546106679190610efe565b90506106766201518082610eea565b9550610e106106886201518083610f11565b6106929190610eea565b9450603c6106a2610e1083610f11565b6106ac9190610eea565b935060016106bb603c83610f11565b6106c59190610eea565b925050509193509193565b6106d8610bcf565b600081116107285760405162461bcd60e51b815260206004820152601f60248201527f4d61782074696d65206d7573742062652067726561746572207468616e2030006044820152606401610436565b600655565b60008181526001602052604090206005015460ff166107865760405162461bcd60e51b815260206004820152601560248201527450726f6a656374206973206e6f742061637469766560581b6044820152606401610436565b60008181526001602052604090206003015442106107e65760405162461bcd60e51b815260206004820152601b60248201527f50726f6a65637420646561646c696e65206861732070617373656400000000006044820152606401610436565b600034116108425760405162461bcd60e51b815260206004820152602360248201527f436f6e747269627574696f6e206d75737420626520677265617465722074686160448201526206e20360ec1b6064820152608401610436565b60008181526001602052604081206004018054349290610863908490610f25565b9091555050600081815260026020908152604080832033845290915281208054349290610891908490610f25565b909155505060408051828152336020820152348183015290517fb2ed2e021651f85a4754a44651fc09ac5141bc0329ce4dfe8dd712a5d04a8b399181900360600190a150565b6108df610bcf565b6000811161092f5760405162461bcd60e51b815260206004820152601f60248201527f4d617820676f616c206d7573742062652067726561746572207468616e2030006044820152606401610436565b600555565b61093c610bcf565b6001600160a01b0381166109a15760405162461bcd60e51b815260206004820152602660248201527f4f776e61626c653a206e6577206f776e657220697320746865207a65726f206160448201526564647265737360d01b6064820152608401610436565b6109aa81610c29565b50565b6000821180156109bf57506005548211155b610a315760405162461bcd60e51b815260206004820152603e60248201527f476f616c206d7573742062652067726561746572207468616e203020616e642060448201527f6c657373207468616e206f7220657175616c20746f206d617820676f616c00006064820152608401610436565b600081118015610a4357506006548111155b610a9f5760405162461bcd60e51b815260206004820152602760248201527f4475726174696f6e206d757374206265206265747765656e203120616e6420336044820152663635206461797360c81b6064820152608401610436565b6000600360008154610ab090610f38565b91829055506040805160c0810182523381526020810187905290810185905290915060608101610ae38462015180610eb7565b610aed9042610f25565b8152600060208083018290526001604093840181905285835280825292909120835181546001600160a01b0319166001600160a01b03909116178155908301519091820190610b3c9082610fa0565b50604082810151600283015560608301516003808401919091556080840151600484015560a0909301516005909201805460ff191692151592909217909155600083815260016020528190209091015490517f483013d4a1d5e8ba43089bda8f1a92b959e32d6fc582556f800267dd809e589391610bc1918491339189918991611060565b60405180910390a150505050565b6000546001600160a01b031633146105e05760405162461bcd60e51b815260206004820181905260248201527f4f776e61626c653a2063616c6c6572206973206e6f7420746865206f776e65726044820152606401610436565b600080546001600160a01b038381166001600160a01b0319831681178455604051919092169283917f8be0079c531659141344cd1fd0a4f28419497f9722a3daafe3b4186f6b6457e09190a35050565b600060208284031215610c8b57600080fd5b5035919050565b6000815180845260005b81811015610cb857602081850181015186830182015201610c9c565b506000602082860101526020601f19601f83011685010191505092915050565b6001600160a01b038716815260c060208201819052600090610cfc90830188610c92565b905085604083015284606083015283608083015282151560a0830152979650505050505050565b80356001600160a01b0381168114610d3a57600080fd5b919050565b60008060408385031215610d5257600080fd5b82359150610d6260208401610d23565b90509250929050565b600060208284031215610d7d57600080fd5b610d8682610d23565b9392505050565b634e487b7160e01b600052604160045260246000fd5b600080600060608486031215610db857600080fd5b833567ffffffffffffffff80821115610dd057600080fd5b818601915086601f830112610de457600080fd5b813581811115610df657610df6610d8d565b604051601f8201601f19908116603f01168101908382118183101715610e1e57610e1e610d8d565b81604052828152896020848701011115610e3757600080fd5b82602086016020830137600060208483010152809750505050505060208401359150604084013590509250925092565b600181811c90821680610e7b57607f821691505b602082108103610e9b57634e487b7160e01b600052602260045260246000fd5b50919050565b634e487b7160e01b600052601160045260246000fd5b8082028115828204841417610ece57610ece610ea1565b92915050565b634e487b7160e01b600052601260045260246000fd5b600082610ef957610ef9610ed4565b500490565b81810381811115610ece57610ece610ea1565b600082610f2057610f20610ed4565b500690565b80820180821115610ece57610ece610ea1565b600060018201610f4a57610f4a610ea1565b5060010190565b601f821115610f9b57600081815260208120601f850160051c81016020861015610f785750805b601f850160051c820191505b81811015610f9757828155600101610f84565b5050505b505050565b815167ffffffffffffffff811115610fba57610fba610d8d565b610fce81610fc88454610e67565b84610f51565b602080601f8311600181146110035760008415610feb5750858301515b600019600386901b1c1916600185901b178555610f97565b600085815260208120601f198616915b8281101561103257888601518255948401946001909101908401611013565b50858210156110505787850151600019600388901b60f8161c191681555b5050505050600190811b01905550565b8581526001600160a01b038516602082015260a06040820181905260009061108a90830186610c92565b60608301949094525060800152939250505056fea2646970667358221220c88441f138b0dd4f9fce31be0402fe22f4590d48f83ce5ff2c8cc09a72967fc164736f6c63430008110033",
  "devdoc": {
    "kind": "dev",
    "methods": {
      "owner()": {
        "details": "Returns the address of the current owner."
      },
      "renounceOwnership()": {
        "details": "Leaves the contract without owner. It will not be possible to call `onlyOwner` functions anymore. Can only be called by the current owner. NOTE: Renouncing ownership will leave the contract without an owner, thereby removing any functionality that is only available to the owner."
      },
      "transferOwnership(address)": {
        "details": "Transfers ownership of the contract to a new account (`newOwner`). Can only be called by the current owner."
      }
    },
    "version": 1
  },
  "userdoc": {
    "kind": "user",
    "methods": {},
    "version": 1
  },
  "storageLayout": {
    "storage": [
      {
        "astId": 7,
        "contract": "contracts/CrystalFund.sol:CrystalFund",
        "label": "_owner",
        "offset": 0,
        "slot": "0",
        "type": "t_address"
      },
      {
        "astId": 157,
        "contract": "contracts/CrystalFund.sol:CrystalFund",
        "label": "projects",
        "offset": 0,
        "slot": "1",
        "type": "t_mapping(t_uint256,t_struct(Project)152_storage)"
      },
      {
        "astId": 163,
        "contract": "contracts/CrystalFund.sol:CrystalFund",
        "label": "contributions",
        "offset": 0,
        "slot": "2",
        "type": "t_mapping(t_uint256,t_mapping(t_address,t_uint256))"
      },
      {
        "astId": 166,
        "contract": "contracts/CrystalFund.sol:CrystalFund",
        "label": "projectCount",
        "offset": 0,
        "slot": "3",
        "type": "t_uint256"
      },
      {
        "astId": 169,
        "contract": "contracts/CrystalFund.sol:CrystalFund",
        "label": "contractFeePercentage",
        "offset": 0,
        "slot": "4",
        "type": "t_uint256"
      },
      {
        "astId": 172,
        "contract": "contracts/CrystalFund.sol:CrystalFund",
        "label": "maxGoal",
        "offset": 0,
        "slot": "5",
        "type": "t_uint256"
      },
      {
        "astId": 175,
        "contract": "contracts/CrystalFund.sol:CrystalFund",
        "label": "maxTime",
        "offset": 0,
        "slot": "6",
        "type": "t_uint256"
      }
    ],
    "types": {
      "t_address": {
        "encoding": "inplace",
        "label": "address",
        "numberOfBytes": "20"
      },
      "t_bool": {
        "encoding": "inplace",
        "label": "bool",
        "numberOfBytes": "1"
      },
      "t_mapping(t_address,t_uint256)": {
        "encoding": "mapping",
        "key": "t_address",
        "label": "mapping(address => uint256)",
        "numberOfBytes": "32",
        "value": "t_uint256"
      },
      "t_mapping(t_uint256,t_mapping(t_address,t_uint256))": {
        "encoding": "mapping",
        "key": "t_uint256",
        "label": "mapping(uint256 => mapping(address => uint256))",
        "numberOfBytes": "32",
        "value": "t_mapping(t_address,t_uint256)"
      },
      "t_mapping(t_uint256,t_struct(Project)152_storage)": {
        "encoding": "mapping",
        "key": "t_uint256",
        "label": "mapping(uint256 => struct CrystalFund.Project)",
        "numberOfBytes": "32",
        "value": "t_struct(Project)152_storage"
      },
      "t_string_storage": {
        "encoding": "bytes",
        "label": "string",
        "numberOfBytes": "32"
      },
      "t_struct(Project)152_storage": {
        "encoding": "inplace",
        "label": "struct CrystalFund.Project",
        "members": [
          {
            "astId": 141,
            "contract": "contracts/CrystalFund.sol:CrystalFund",
            "label": "creator",
            "offset": 0,
            "slot": "0",
            "type": "t_address"
          },
          {
            "astId": 143,
            "contract": "contracts/CrystalFund.sol:CrystalFund",
            "label": "causa",
            "offset": 0,
            "slot": "1",
            "type": "t_string_storage"
          },
          {
            "astId": 145,
            "contract": "contracts/CrystalFund.sol:CrystalFund",
            "label": "goal",
            "offset": 0,
            "slot": "2",
            "type": "t_uint256"
          },
          {
            "astId": 147,
            "contract": "contracts/CrystalFund.sol:CrystalFund",
            "label": "deadline",
            "offset": 0,
            "slot": "3",
            "type": "t_uint256"
          },
          {
            "astId": 149,
            "contract": "contracts/CrystalFund.sol:CrystalFund",
            "label": "amountRaised",
            "offset": 0,
            "slot": "4",
            "type": "t_uint256"
          },
          {
            "astId": 151,
            "contract": "contracts/CrystalFund.sol:CrystalFund",
            "label": "isActive",
            "offset": 0,
            "slot": "5",
            "type": "t_bool"
          }
        ],
        "numberOfBytes": "192"
      },
      "t_uint256": {
        "encoding": "inplace",
        "label": "uint256",
        "numberOfBytes": "32"
      }
    }
  }
}